S012000048656C6C6F576F726C642E7372656316
S113000012C019C018C017C016C015C014C013C040
S113001012C011C010C00FC00EC00DC00CC00BC068
S11300200AC009C008C011241FBECFE5D4E0DEBF5A
S1130030CDBF02D034C0E4CF81E087BB84BB91E163
S113004091BB88BB85BB82BB82BB82BB90E192BB68
S113005015BA2FE33DE043E0215030404040E1F742
S113006000C0000092BB81E085BBEFE4F3EC319764
S1130070F1F700C0000012BA85BBFFE32DE033E0C6
S1130080F15020403040E1F700C0000092BB85BB36
S11300908FE493EC0197F1F700C00000D7CFF894F8
S10500A0FFCF8C
S9030000FC
